{
  "_format": "hh-sol-artifact-1",
  "contractName": "CropPricing",
  "sourceName": "contracts/CropPricing.sol",
  "abi": [
    {
      "anonymous": false,
      "inputs": [
        {
          "indexed": true,
          "internalType": "uint256",
          "name": "recordId",
          "type": "uint256"
        },
        {
          "indexed": false,
          "internalType": "string",
          "name": "crop",
          "type": "string"
        },
        {
          "indexed": false,
          "internalType": "string",
          "name": "location",
          "type": "string"
        },
        {
          "indexed": false,
          "internalType": "uint8",
          "name": "qualityScore",
          "type": "uint8"
        },
        {
          "indexed": false,
          "internalType": "uint256",
          "name": "quantityQuintals",
          "type": "uint256"
        },
        {
          "indexed": false,
          "internalType": "uint256",
          "name": "minPrice",
          "type": "uint256"
        },
        {
          "indexed": false,
          "internalType": "uint256",
          "name": "maxPrice",
          "type": "uint256"
        },
        {
          "indexed": false,
          "internalType": "uint256",
          "name": "guaranteedPrice",
          "type": "uint256"
        },
        {
          "indexed": true,
          "internalType": "address",
          "name": "farmer",
          "type": "address"
        },
        {
          "indexed": false,
          "internalType": "uint256",
          "name": "timestamp",
          "type": "uint256"
        }
      ],
      "name": "PriceRecorded",
      "type": "event"
    },
    {
      "inputs": [
        {
          "internalType": "address",
          "name": "_farmer",
          "type": "address"
        }
      ],
      "name": "getFarmerRecords",
      "outputs": [
        {
          "internalType": "uint256[]",
          "name": "",
          "type": "uint256[]"
        }
      ],
      "stateMutability": "view",
      "type": "function"
    },
    {
      "inputs": [
        {
          "internalType": "uint256",
          "name": "_recordId",
          "type": "uint256"
        }
      ],
      "name": "getPriceRecord",
      "outputs": [
        {
          "internalType": "string",
          "name": "crop",
          "type": "string"
        },
        {
          "internalType": "string",
          "name": "location",
          "type": "string"
        },
        {
          "internalType": "uint8",
          "name": "qualityScore",
          "type": "uint8"
        },
        {
          "internalType": "uint256",
          "name": "quantityQuintals",
          "type": "uint256"
        },
        {
          "internalType": "uint256",
          "name": "minPrice",
          "type": "uint256"
        },
        {
          "internalType": "uint256",
          "name": "maxPrice",
          "type": "uint256"
        },
        {
          "internalType": "uint256",
          "name": "guaranteedPrice",
          "type": "uint256"
        },
        {
          "internalType": "uint256",
          "name": "confidenceScore",
          "type": "uint256"
        },
        {
          "internalType": "address",
          "name": "farmer",
          "type": "address"
        },
        {
          "internalType": "uint256",
          "name": "timestamp",
          "type": "uint256"
        }
      ],
      "stateMutability": "view",
      "type": "function"
    },
    {
      "inputs": [],
      "name": "getTotalRecords",
      "outputs": [
        {
          "internalType": "uint256",
          "name": "",
          "type": "uint256"
        }
      ],
      "stateMutability": "view",
      "type": "function"
    },
    {
      "inputs": [
        {
          "internalType": "uint256",
          "name": "",
          "type": "uint256"
        }
      ],
      "name": "priceRecords",
      "outputs": [
        {
          "internalType": "string",
          "name": "crop",
          "type": "string"
        },
        {
          "internalType": "string",
          "name": "location",
          "type": "string"
        },
        {
          "internalType": "uint8",
          "name": "qualityScore",
          "type": "uint8"
        },
        {
          "internalType": "uint256",
          "name": "quantityQuintals",
          "type": "uint256"
        },
        {
          "internalType": "uint256",
          "name": "minPrice",
          "type": "uint256"
        },
        {
          "internalType": "uint256",
          "name": "maxPrice",
          "type": "uint256"
        },
        {
          "internalType": "uint256",
          "name": "guaranteedPrice",
          "type": "uint256"
        },
        {
          "internalType": "uint256",
          "name": "confidenceScore",
          "type": "uint256"
        },
        {
          "internalType": "address",
          "name": "farmer",
          "type": "address"
        },
        {
          "internalType": "uint256",
          "name": "timestamp",
          "type": "uint256"
        },
        {
          "internalType": "bool",
          "name": "exists",
          "type": "bool"
        }
      ],
      "stateMutability": "view",
      "type": "function"
    },
    {
      "inputs": [],
      "name": "recordCount",
      "outputs": [
        {
          "internalType": "uint256",
          "name": "",
          "type": "uint256"
        }
      ],
      "stateMutability": "view",
      "type": "function"
    },
    {
      "inputs": [
        {
          "internalType": "uint256",
          "name": "",
          "type": "uint256"
        }
      ],
      "name": "recordIds",
      "outputs": [
        {
          "internalType": "uint256",
          "name": "",
          "type": "uint256"
        }
      ],
      "stateMutability": "view",
      "type": "function"
    },
    {
      "inputs": [
        {
          "internalType": "string",
          "name": "_crop",
          "type": "string"
        },
        {
          "internalType": "string",
          "name": "_location",
          "type": "string"
        },
        {
          "internalType": "uint8",
          "name": "_qualityScore",
          "type": "uint8"
        },
        {
          "internalType": "uint256",
          "name": "_quantityQuintals",
          "type": "uint256"
        },
        {
          "internalType": "uint256",
          "name": "_minPrice",
          "type": "uint256"
        },
        {
          "internalType": "uint256",
          "name": "_maxPrice",
          "type": "uint256"
        },
        {
          "internalType": "uint256",
          "name": "_guaranteedPrice",
          "type": "uint256"
        },
        {
          "internalType": "uint256",
          "name": "_confidenceScore",
          "type": "uint256"
        }
      ],
      "name": "storePriceRecord",
      "outputs": [
        {
          "internalType": "uint256",
          "name": "",
          "type": "uint256"
        }
      ],
      "stateMutability": "nonpayable",
      "type": "function"
    }
  ],
  "bytecode": "0x608060405234801561001057600080fd5b5061180a806100206000396000f3fe608060405234801561001057600080fd5b506004361061007d5760003560e01c8063a80275591161005b578063a8027559146100ee578063b719149b1461011e578063bdf485631461014e578063c2fd886f146101875761007d565b80630aeacb5e14610082578063900407bc146100a057806397ddbef9146100be575b600080fd5b61008a6101c1565b6040516100979190610b99565b60405180910390f35b6100a86101cb565b6040516100b59190610b99565b60405180910390f35b6100d860048036038101906100d39190610bf4565b6101d1565b6040516100e59190610b99565b60405180910390f35b61010860048036038101906101039190610da0565b6101f5565b6040516101159190610b99565b60405180910390f35b61013860048036038101906101339190610eec565b6104f9565b6040516101459190610fd7565b60405180910390f35b61016860048036038101906101639190610bf4565b610705565b60405161017e9a99989796959493929190611096565b60405180910390f35b6101a1600480360381019061019c9190610bf4565b6109dc565b6040516101b89b9a9998979695949392919061115b565b60405180910390f35b6000600254905090565b60025481565b600181815481106101e157600080fd5b906000526020600020016000915090505481565b600060018760ff161015801561020f5750600a8760ff1611155b61024e576040517f08c379a000000000000000000000000000000000000000000000000000000000815260040161024590611260565b60405180910390fd5b60008611610291576040517f08c379a0000000000000000000000000000000000000000000000000000000008152600401610288906112cc565b60405180910390fd5b848410156102d4576040517f08c379a00000000000000000000000000000000000000000000000000000000081526004016102cb90611338565b60405180910390fd5b600260008154809291906102e790611387565b9190505550600060025490506040518061016001604052808b81526020018a81526020018960ff1681526020018881526020018781526020018681526020018581526020018481526020013373ffffffffffffffffffffffffffffffffffffffff16815260200142815260200160011515815250600080838152602001908152602001600020600082015181600001908161038291906115db565b50602082015181600101908161039891906115db565b5060408201518160020160006101000a81548160ff021916908360ff160217905550606082015181600301556080820151816004015560a0820151816005015560c0820151816006015560e082015181600701556101008201518160080160006101000a81548173ffffffffffffffffffffffffffffffffffffffff021916908373ffffffffffffffffffffffffffffffffffffffff160217905550610120820151816009015561014082015181600a0160006101000a81548160ff02191690831515021790555090505060018190806001815401808255809150506001900390600052602060002001600090919091909150553373ffffffffffffffffffffffffffffffffffffffff16817fd0e0f5562155f810333e553361d1514d116515b948ef5e34044443cedf4433768c8c8c8c8c8c8c426040516104e19897969594939291906116ad565b60405180910390a38091505098975050505050505050565b60606000805b6001805490508110156105b4578373ffffffffffffffffffffffffffffffffffffffff166000806001848154811061053a57610539611739565b5b9060005260206000200154815260200190815260200160002060080160009054906101000a900473ffffffffffffffffffffffffffffffffffffffff1673ffffffffffffffffffffffffffffffffffffffff16036105a157818061059d90611387565b9250505b80806105ac90611387565b9150506104ff565b5060008167ffffffffffffffff8111156105d1576105d0610c3c565b5b6040519080825280602002602001820160405280156105ff5781602001602082028036833780820191505090505b5090506000805b6001805490508110156106f9578573ffffffffffffffffffffffffffffffffffffffff166000806001848154811061064157610640611739565b5b9060005260206000200154815260200190815260200160002060080160009054906101000a900473ffffffffffffffffffffffffffffffffffffffff1673ffffffffffffffffffffffffffffffffffffffff16036106e657600181815481106106ad576106ac611739565b5b90600052602060002001548383815181106106cb576106ca611739565b5b60200260200101818152505081806106e290611387565b9250505b80806106f190611387565b915050610606565b50819350505050919050565b6060806000806000806000806000806000808c8152602001908152602001600020600a0160009054906101000a900460ff16610776576040517f08c379a000000000000000000000000000000000000000000000000000000000815260040161076d906117b4565b60405180910390fd5b60008060008d8152602001908152602001600020604051806101600160405290816000820180546107a6906113fe565b80601f01602080910402602001604051908101604052809291908181526020018280546107d2906113fe565b801561081f5780601f106107f45761010080835404028352916020019161081f565b820191906000526020600020905b81548152906001019060200180831161080257829003601f168201915b50505050508152602001600182018054610838906113fe565b80601f0160208091040260200160405190810160405280929190818152602001828054610864906113fe565b80156108b15780601f10610886576101008083540402835291602001916108b1565b820191906000526020600020905b81548152906001019060200180831161089457829003601f168201915b505050505081526020016002820160009054906101000a900460ff1660ff1660ff16815260200160038201548152602001600482015481526020016005820154815260200160068201548152602001600782015481526020016008820160009054906101000a900473ffffffffffffffffffffffffffffffffffffffff1673ffffffffffffffffffffffffffffffffffffffff1673ffffffffffffffffffffffffffffffffffffffff16815260200160098201548152602001600a820160009054906101000a900460ff1615151515815250509050806000015181602001518260400151836060015184608001518560a001518660c001518760e001518861010001518961012001519a509a509a509a509a509a509a509a509a509a50509193959799509193959799565b60006020528060005260406000206000915090508060000180546109ff906113fe565b80601f0160208091040260200160405190810160405280929190818152602001828054610a2b906113fe565b8015610a785780601f10610a4d57610100808354040283529160200191610a78565b820191906000526020600020905b815481529060010190602001808311610a5b57829003601f168201915b505050505090806001018054610a8d906113fe565b80601f0160208091040260200160405190810160405280929190818152602001828054610ab9906113fe565b8015610b065780601f10610adb57610100808354040283529160200191610b06565b820191906000526020600020905b815481529060010190602001808311610ae957829003601f168201915b5050505050908060020160009054906101000a900460ff16908060030154908060040154908060050154908060060154908060070154908060080160009054906101000a900473ffffffffffffffffffffffffffffffffffffffff169080600901549080600a0160009054906101000a900460ff1690508b565b6000819050919050565b610b9381610b80565b82525050565b6000602082019050610bae6000830184610b8a565b92915050565b6000604051905090565b600080fd5b600080fd5b610bd181610b80565b8114610bdc57600080fd5b50565b600081359050610bee81610bc8565b92915050565b600060208284031215610c0a57610c09610bbe565b5b6000610c1884828501610bdf565b91505092915050565b600080fd5b600080fd5b6000601f19601f8301169050919050565b7f4e487b7100000000000000000000000000000000000000000000000000000000600052604160045260246000fd5b610c7482610c2b565b810181811067ffffffffffffffff82111715610c9357610c92610c3c565b5b80604052505050565b6000610ca6610bb4565b9050610cb28282610c6b565b919050565b600067ffffffffffffffff821115610cd257610cd1610c3c565b5b610cdb82610c2b565b9050602081019050919050565b82818337600083830152505050565b6000610d0a610d0584610cb7565b610c9c565b905082815260208101848484011115610d2657610d25610c26565b5b610d31848285610ce8565b509392505050565b600082601f830112610d4e57610d4d610c21565b5b8135610d5e848260208601610cf7565b91505092915050565b600060ff82169050919050565b610d7d81610d67565b8114610d8857600080fd5b50565b600081359050610d9a81610d74565b92915050565b600080600080600080600080610100898b031215610dc157610dc0610bbe565b5b600089013567ffffffffffffffff811115610ddf57610dde610bc3565b5b610deb8b828c01610d39565b985050602089013567ffffffffffffffff811115610e0c57610e0b610bc3565b5b610e188b828c01610d39565b9750506040610e298b828c01610d8b565b9650506060610e3a8b828c01610bdf565b9550506080610e4b8b828c01610bdf565b94505060a0610e5c8b828c01610bdf565b93505060c0610e6d8b828c01610bdf565b92505060e0610e7e8b828c01610bdf565b9150509295985092959890939650565b600073ffffffffffffffffffffffffffffffffffffffff82169050919050565b6000610eb982610e8e565b9050919050565b610ec981610eae565b8114610ed457600080fd5b50565b600081359050610ee681610ec0565b92915050565b600060208284031215610f0257610f01610bbe565b5b6000610f1084828501610ed7565b91505092915050565b600081519050919050565b600082825260208201905092915050565b6000819050602082019050919050565b610f4e81610b80565b82525050565b6000610f608383610f45565b60208301905092915050565b6000602082019050919050565b6000610f8482610f19565b610f8e8185610f24565b9350610f9983610f35565b8060005b83811015610fca578151610fb18882610f54565b9750610fbc83610f6c565b925050600181019050610f9d565b5085935050505092915050565b60006020820190508181036000830152610ff18184610f79565b905092915050565b600081519050919050565b600082825260208201905092915050565b60005b83811015611033578082015181840152602081019050611018565b60008484015250505050565b600061104a82610ff9565b6110548185611004565b9350611064818560208601611015565b61106d81610c2b565b840191505092915050565b61108181610d67565b82525050565b61109081610eae565b82525050565b60006101408201905081810360008301526110b1818d61103f565b905081810360208301526110c5818c61103f565b90506110d4604083018b611078565b6110e1606083018a610b8a565b6110ee6080830189610b8a565b6110fb60a0830188610b8a565b61110860c0830187610b8a565b61111560e0830186610b8a565b611123610100830185611087565b611131610120830184610b8a565b9b9a5050505050505050505050565b60008115159050919050565b61115581611140565b82525050565b6000610160820190508181036000830152611176818e61103f565b9050818103602083015261118a818d61103f565b9050611199604083018c611078565b6111a6606083018b610b8a565b6111b3608083018a610b8a565b6111c060a0830189610b8a565b6111cd60c0830188610b8a565b6111da60e0830187610b8a565b6111e8610100830186611087565b6111f6610120830185610b8a565b61120461014083018461114c565b9c9b505050505050505050505050565b7f5175616c6974792073636f7265206d75737420626520312d3130000000000000600082015250565b600061124a601a83611004565b915061125582611214565b602082019050919050565b600060208201905081810360008301526112798161123d565b9050919050565b7f5175616e74697479206d7573742062652067726561746572207468616e203000600082015250565b60006112b6601f83611004565b91506112c182611280565b602082019050919050565b600060208201905081810360008301526112e5816112a9565b9050919050565b7f4d6178207072696365206d757374206265203e3d206d696e2070726963650000600082015250565b6000611322601e83611004565b915061132d826112ec565b602082019050919050565b6000602082019050818103600083015261135181611315565b9050919050565b7f4e487b7100000000000000000000000000000000000000000000000000000000600052601160045260246000fd5b600061139282610b80565b91507fffffffffffffffffffffffffffffffffffffffffffffffffffffffffffffffff82036113c4576113c3611358565b5b600182019050919050565b7f4e487b7100000000000000000000000000000000000000000000000000000000600052602260045260246000fd5b6000600282049050600182168061141657607f821691505b602082108103611429576114286113cf565b5b50919050565b60008190508160005260206000209050919050565b60006020601f8301049050919050565b600082821b905092915050565b6000600883026114917fffffffffffffffffffffffffffffffffffffffffffffffffffffffffffffffff82611454565b61149b8683611454565b95508019841693508086168417925050509392505050565b6000819050919050565b60006114d86114d36114ce84610b80565b6114b3565b610b80565b9050919050565b6000819050919050565b6114f2836114bd565b6115066114fe826114df565b848454611461565b825550505050565b600090565b61151b61150e565b6115268184846114e9565b505050565b5b8181101561154a5761153f600082611513565b60018101905061152c565b5050565b601f82111561158f576115608161142f565b61156984611444565b81016020851015611578578190505b61158c61158485611444565b83018261152b565b50505b505050565b600082821c905092915050565b60006115b260001984600802611594565b1980831691505092915050565b60006115cb83836115a1565b9150826002028217905092915050565b6115e482610ff9565b67ffffffffffffffff8111156115fd576115fc610c3c565b5b61160782546113fe565b61161282828561154e565b600060209050601f8311600181146116455760008415611633578287015190505b61163d85826115bf565b8655506116a5565b601f1984166116538661142f565b60005b8281101561167b57848901518255600182019150602085019450602081019050611656565b868310156116985784890151611694601f8916826115a1565b8355505b6001600288020188555050505b505050505050565b60006101008201905081810360008301526116c8818b61103f565b905081810360208301526116dc818a61103f565b90506116eb6040830189611078565b6116f86060830188610b8a565b6117056080830187610b8a565b61171260a0830186610b8a565b61171f60c0830185610b8a565b61172c60e0830184610b8a565b9998505050505050505050565b7f4e487b7100000000000000000000000000000000000000000000000000000000600052603260045260246000fd5b7f5265636f726420646f6573206e6f742065786973740000000000000000000000600082015250565b600061179e601583611004565b91506117a982611768565b602082019050919050565b600060208201905081810360008301526117cd81611791565b905091905056fea2646970667358221220d15143df52a09680ce1eb45961491fe769446bb4da615fe0104bdd5a9ccec84964736f6c63430008130033",
  "linkReferences": {},
  "deployedLinkReferences": {}
}